{
  "_format": "hh-sol-artifact-1",
  "contractName": "Reviews",
  "sourceName": "contracts/Reviews.sol",
  "abi": [
    {
      "anonymous": false,
      "inputs": [
        {
          "indexed": false,
          "internalType": "uint256",
          "name": "id",
          "type": "uint256"
        },
        {
          "indexed": false,
          "internalType": "string",
          "name": "targetUserId",
          "type": "string"
        },
        {
          "indexed": false,
          "internalType": "string",
          "name": "reviewerId",
          "type": "string"
        },
        {
          "indexed": false,
          "internalType": "string",
          "name": "orderId",
          "type": "string"
        },
        {
          "indexed": false,
          "internalType": "uint8",
          "name": "rating",
          "type": "uint8"
        }
      ],
      "name": "ReviewAdded",
      "type": "event"
    },
    {
      "inputs": [
        {
          "internalType": "string",
          "name": "_targetUserId",
          "type": "string"
        },
        {
          "internalType": "string",
          "name": "_reviewerId",
          "type": "string"
        },
        {
          "internalType": "string",
          "name": "_orderId",
          "type": "string"
        },
        {
          "internalType": "uint8",
          "name": "_rating",
          "type": "uint8"
        },
        {
          "internalType": "string",
          "name": "_comment",
          "type": "string"
        }
      ],
      "name": "addReview",
      "outputs": [],
      "stateMutability": "nonpayable",
      "type": "function"
    },
    {
      "inputs": [
        {
          "internalType": "uint256",
          "name": "",
          "type": "uint256"
        }
      ],
      "name": "allReviews",
      "outputs": [
        {
          "internalType": "uint256",
          "name": "id",
          "type": "uint256"
        },
        {
          "internalType": "string",
          "name": "targetUserId",
          "type": "string"
        },
        {
          "internalType": "string",
          "name": "reviewerId",
          "type": "string"
        },
        {
          "internalType": "string",
          "name": "orderId",
          "type": "string"
        },
        {
          "internalType": "uint8",
          "name": "rating",
          "type": "uint8"
        },
        {
          "internalType": "string",
          "name": "comment",
          "type": "string"
        },
        {
          "internalType": "uint256",
          "name": "timestamp",
          "type": "uint256"
        }
      ],
      "stateMutability": "view",
      "type": "function"
    },
    {
      "inputs": [],
      "name": "getTotalReviews",
      "outputs": [
        {
          "internalType": "uint256",
          "name": "",
          "type": "uint256"
        }
      ],
      "stateMutability": "view",
      "type": "function"
    }
  ],
  "bytecode": "0x608060405234801561001057600080fd5b50610d6d806100206000396000f3fe608060405234801561001057600080fd5b50600436106100415760003560e01c8063114bbfc31461004657806325f6008214610062578063ffa590ae14610080575b600080fd5b610060600480360381019061005b919061067d565b6100b6565b005b61006a61025e565b6040516100779190610781565b60405180910390f35b61009a600480360381019061009591906107c8565b61026b565b6040516100ad9796959493929190610883565b60405180910390f35b60018260ff16101580156100ce575060058260ff1611155b61010d576040517f08c379a00000000000000000000000000000000000000000000000000000000081526004016101049061095a565b60405180910390fd5b60008081548092919061011f906109a9565b919050555060016040518060e0016040528060005481526020018781526020018681526020018581526020018460ff1681526020018381526020014281525090806001815401808255809150506001900390600052602060002090600702016000909190919091506000820151816000015560208201518160010190816101a69190610bfd565b5060408201518160020190816101bc9190610bfd565b5060608201518160030190816101d29190610bfd565b5060808201518160040160006101000a81548160ff021916908360ff16021790555060a08201518160050190816102099190610bfd565b5060c0820151816006015550507f78cbf3360aa23c3fe320b683be1550acae6465472a8330eafebd8205b2de06916000548686868660405161024f959493929190610ccf565b60405180910390a15050505050565b6000600180549050905090565b6001818154811061027b57600080fd5b90600052602060002090600702016000915090508060000154908060010180546102a490610a20565b80601f01602080910402602001604051908101604052809291908181526020018280546102d090610a20565b801561031d5780601f106102f25761010080835404028352916020019161031d565b820191906000526020600020905b81548152906001019060200180831161030057829003601f168201915b50505050509080600201805461033290610a20565b80601f016020809104026020016040519081016040528092919081815260200182805461035e90610a20565b80156103ab5780601f10610380576101008083540402835291602001916103ab565b820191906000526020600020905b81548152906001019060200180831161038e57829003601f168201915b5050505050908060030180546103c090610a20565b80601f01602080910402602001604051908101604052809291908181526020018280546103ec90610a20565b80156104395780601f1061040e57610100808354040283529160200191610439565b820191906000526020600020905b81548152906001019060200180831161041c57829003601f168201915b5050505050908060040160009054906101000a900460ff169080600501805461046190610a20565b80601f016020809104026020016040519081016040528092919081815260200182805461048d90610a20565b80156104da5780601f106104af576101008083540402835291602001916104da565b820191906000526020600020905b8154815290600101906020018083116104bd57829003601f168201915b5050505050908060060154905087565b6000604051905090565b600080fd5b600080fd5b600080fd5b600080fd5b6000601f19601f8301169050919050565b7f4e487b7100000000000000000000000000000000000000000000000000000000600052604160045260246000fd5b61055182610508565b810181811067ffffffffffffffff821117156105705761056f610519565b5b80604052505050565b60006105836104ea565b905061058f8282610548565b919050565b600067ffffffffffffffff8211156105af576105ae610519565b5b6105b882610508565b9050602081019050919050565b82818337600083830152505050565b60006105e76105e284610594565b610579565b90508281526020810184848401111561060357610602610503565b5b61060e8482856105c5565b509392505050565b600082601f83011261062b5761062a6104fe565b5b813561063b8482602086016105d4565b91505092915050565b600060ff82169050919050565b61065a81610644565b811461066557600080fd5b50565b60008135905061067781610651565b92915050565b600080600080600060a08688031215610699576106986104f4565b5b600086013567ffffffffffffffff8111156106b7576106b66104f9565b5b6106c388828901610616565b955050602086013567ffffffffffffffff8111156106e4576106e36104f9565b5b6106f088828901610616565b945050604086013567ffffffffffffffff811115610711576107106104f9565b5b61071d88828901610616565b935050606061072e88828901610668565b925050608086013567ffffffffffffffff81111561074f5761074e6104f9565b5b61075b88828901610616565b9150509295509295909350565b6000819050919050565b61077b81610768565b82525050565b60006020820190506107966000830184610772565b92915050565b6107a581610768565b81146107b057600080fd5b50565b6000813590506107c28161079c565b92915050565b6000602082840312156107de576107dd6104f4565b5b60006107ec848285016107b3565b91505092915050565b600081519050919050565b600082825260208201905092915050565b60005b8381101561082f578082015181840152602081019050610814565b60008484015250505050565b6000610846826107f5565b6108508185610800565b9350610860818560208601610811565b61086981610508565b840191505092915050565b61087d81610644565b82525050565b600060e082019050610898600083018a610772565b81810360208301526108aa818961083b565b905081810360408301526108be818861083b565b905081810360608301526108d2818761083b565b90506108e16080830186610874565b81810360a08301526108f3818561083b565b905061090260c0830184610772565b98975050505050505050565b7f526174696e67206d757374206265206265747765656e203120616e6420350000600082015250565b6000610944601e83610800565b915061094f8261090e565b602082019050919050565b6000602082019050818103600083015261097381610937565b9050919050565b7f4e487b7100000000000000000000000000000000000000000000000000000000600052601160045260246000fd5b60006109b482610768565b91507fffffffffffffffffffffffffffffffffffffffffffffffffffffffffffffffff82036109e6576109e561097a565b5b600182019050919050565b7f4e487b7100000000000000000000000000000000000000000000000000000000600052602260045260246000fd5b60006002820490506001821680610a3857607f821691505b602082108103610a4b57610a4a6109f1565b5b50919050565b60008190508160005260206000209050919050565b60006020601f8301049050919050565b600082821b905092915050565b600060088302610ab37fffffffffffffffffffffffffffffffffffffffffffffffffffffffffffffffff82610a76565b610abd8683610a76565b95508019841693508086168417925050509392505050565b6000819050919050565b6000610afa610af5610af084610768565b610ad5565b610768565b9050919050565b6000819050919050565b610b1483610adf565b610b28610b2082610b01565b848454610a83565b825550505050565b600090565b610b3d610b30565b610b48818484610b0b565b505050565b5b81811015610b6c57610b61600082610b35565b600181019050610b4e565b5050565b601f821115610bb157610b8281610a51565b610b8b84610a66565b81016020851015610b9a578190505b610bae610ba685610a66565b830182610b4d565b50505b505050565b600082821c905092915050565b6000610bd460001984600802610bb6565b1980831691505092915050565b6000610bed8383610bc3565b9150826002028217905092915050565b610c06826107f5565b67ffffffffffffffff811115610c1f57610c1e610519565b5b610c298254610a20565b610c34828285610b70565b600060209050601f831160018114610c675760008415610c55578287015190505b610c5f8582610be1565b865550610cc7565b601f198416610c7586610a51565b60005b82811015610c9d57848901518255600182019150602085019450602081019050610c78565b86831015610cba5784890151610cb6601f891682610bc3565b8355505b6001600288020188555050505b505050505050565b600060a082019050610ce46000830188610772565b8181036020830152610cf6818761083b565b90508181036040830152610d0a818661083b565b90508181036060830152610d1e818561083b565b9050610d2d6080830184610874565b969550505050505056fea26469706673582212201f698cfd130f37150691731a532ea242d7e0aa672e034fb79161f4cfdb0b52b364736f6c63430008180033",
  "linkReferences": {},
  "deployedLinkReferences": {}
}