{"contracts/Traceability.sol":{"Traceability":{"abi":[{"anonymous":false,"inputs":[{"indexed":true,"internalType":"bytes32","name":"batchId","type":"bytes32"},{"indexed":false,"internalType":"string","name":"productId","type":"string"},{"indexed":false,"internalType":"string","name":"supplierId","type":"string"}],"name":"BatchCreated","type":"event"},{"anonymous":false,"inputs":[{"indexed":true,"internalType":"bytes32","name":"batchId","type":"bytes32"},{"indexed":false,"internalType":"string","name":"vendorId","type":"string"},{"indexed":false,"internalType":"uint256","name":"quantity","type":"uint256"}],"name":"BatchTransferred","type":"event"},{"inputs":[{"internalType":"string","name":"_productId","type":"string"},{"internalType":"string","name":"_productName","type":"string"},{"internalType":"string","name":"_supplierId","type":"string"},{"internalType":"string","name":"_origin","type":"string"}],"name":"createProductBatch","outputs":[],"stateMutability":"nonpayable","type":"function"},{"inputs":[{"internalType":"bytes32","name":"_batchId","type":"bytes32"},{"internalType":"string","name":"_vendorId","type":"string"},{"internalType":"string","name":"_orderId","type":"string"},{"internalType":"uint256","name":"_quantity","type":"uint256"}],"name":"logTransfer","outputs":[],"stateMutability":"nonpayable","type":"function"},{"inputs":[{"internalType":"bytes32","name":"","type":"bytes32"}],"name":"productBatches","outputs":[{"internalType":"bytes32","name":"batchId","type":"bytes32"},{"internalType":"string","name":"productId","type":"string"},{"internalType":"string","name":"productName","type":"string"},{"internalType":"string","name":"supplierId","type":"string"},{"internalType":"string","name":"origin","type":"string"},{"internalType":"uint256","name":"creationTimestamp","type":"uint256"}],"stateMutability":"view","type":"function"},{"inputs":[{"internalType":"bytes32","name":"","type":"bytes32"},{"internalType":"uint256","name":"","type":"uint256"}],"name":"transferHistory","outputs":[{"internalType":"string","name":"vendorId","type":"string"},{"internalType":"string","name":"orderId","type":"string"},{"internalType":"uint256","name":"quantity","type":"uint256"},{"internalType":"uint256","name":"transferTimestamp","type":"uint256"}],"stateMutability":"view","type":"function"}],"evm":{"bytecode":{"linkReferences":{},"object":"608060405234801561001057600080fd5b50611152806100206000396000f3fe608060405234801561001057600080fd5b506004361061004c5760003560e01c80635930479a146100515780636ca02e92146100845780636d4dbc9a146100b9578063f3fba468146100d5575b600080fd5b61006b600480360381019061006691906107d7565b6100f1565b60405161007b94939291906108b6565b60405180910390f35b61009e60048036038101906100999190610909565b61024e565b6040516100b096959493929190610945565b60405180910390f35b6100d360048036038101906100ce9190610af7565b6104aa565b005b6100ef60048036038101906100ea9190610b96565b6105e1565b005b6001602052816000526040600020818154811061010d57600080fd5b90600052602060002090600402016000915091505080600001805461013190610c9c565b80601f016020809104026020016040519081016040528092919081815260200182805461015d90610c9c565b80156101aa5780601f1061017f576101008083540402835291602001916101aa565b820191906000526020600020905b81548152906001019060200180831161018d57829003601f168201915b5050505050908060010180546101bf90610c9c565b80601f01602080910402602001604051908101604052809291908181526020018280546101eb90610c9c565b80156102385780601f1061020d57610100808354040283529160200191610238565b820191906000526020600020905b81548152906001019060200180831161021b57829003601f168201915b5050505050908060020154908060030154905084565b600060205280600052604060002060009150905080600001549080600101805461027790610c9c565b80601f01602080910402602001604051908101604052809291908181526020018280546102a390610c9c565b80156102f05780601f106102c5576101008083540402835291602001916102f0565b820191906000526020600020905b8154815290600101906020018083116102d357829003601f168201915b50505050509080600201805461030590610c9c565b80601f016020809104026020016040519081016040528092919081815260200182805461033190610c9c565b801561037e5780601f106103535761010080835404028352916020019161037e565b820191906000526020600020905b81548152906001019060200180831161036157829003601f168201915b50505050509080600301805461039390610c9c565b80601f01602080910402602001604051908101604052809291908181526020018280546103bf90610c9c565b801561040c5780601f106103e15761010080835404028352916020019161040c565b820191906000526020600020905b8154815290600101906020018083116103ef57829003601f168201915b50505050509080600401805461042190610c9c565b80601f016020809104026020016040519081016040528092919081815260200182805461044d90610c9c565b801561049a5780601f1061046f5761010080835404028352916020019161049a565b820191906000526020600020905b81548152906001019060200180831161047d57829003601f168201915b5050505050908060050154905086565b60008060008681526020019081526020016000206005015403610502576040517f08c379a00000000000000000000000000000000000000000000000000000000081526004016104f990610d19565b60405180910390fd5b60016000858152602001908152602001600020604051806080016040528085815260200184815260200183815260200142815250908060018154018082558091505060019003906000526020600020906004020160009091909190915060008201518160000190816105749190610ee5565b50602082015181600101908161058a9190610ee5565b5060408201518160020155606082015181600301555050837f5616a70a14144262a8f4674abc7e3edea43ff78a7bdb188ed4202e5ad0c17e9f84836040516105d3929190610fb7565b60405180910390a250505050565b60008483426040516020016105f893929190611044565b60405160208183030381529060405280519060200120905060008060008381526020019081526020016000206005015414610668576040517f08c379a000000000000000000000000000000000000000000000000000000000815260040161065f906110c5565b60405180910390fd5b6040518060c00160405280828152602001868152602001858152602001848152602001838152602001428152506000808381526020019081526020016000206000820151816000015560208201518160010190816106c69190610ee5565b5060408201518160020190816106dc9190610ee5565b5060608201518160030190816106f29190610ee5565b5060808201518160040190816107089190610ee5565b5060a08201518160050155905050807f8dece642e5f22a7eb065a30d12681b707bb138e6b86ffe6338a8786b59ebcf1686856040516107489291906110e5565b60405180910390a25050505050565b6000604051905090565b600080fd5b600080fd5b6000819050919050565b61077e8161076b565b811461078957600080fd5b50565b60008135905061079b81610775565b92915050565b6000819050919050565b6107b4816107a1565b81146107bf57600080fd5b50565b6000813590506107d1816107ab565b92915050565b600080604083850312156107ee576107ed610761565b5b60006107fc8582860161078c565b925050602061080d858286016107c2565b9150509250929050565b600081519050919050565b600082825260208201905092915050565b60005b83811015610851578082015181840152602081019050610836565b60008484015250505050565b6000601f19601f8301169050919050565b600061087982610817565b6108838185610822565b9350610893818560208601610833565b61089c8161085d565b840191505092915050565b6108b0816107a1565b82525050565b600060808201905081810360008301526108d0818761086e565b905081810360208301526108e4818661086e565b90506108f360408301856108a7565b61090060608301846108a7565b95945050505050565b60006020828403121561091f5761091e610761565b5b600061092d8482850161078c565b91505092915050565b61093f8161076b565b82525050565b600060c08201905061095a6000830189610936565b818103602083015261096c818861086e565b90508181036040830152610980818761086e565b90508181036060830152610994818661086e565b905081810360808301526109a8818561086e565b90506109b760a08301846108a7565b979650505050505050565b600080fd5b600080fd5b7f4e487b7100000000000000000000000000000000000000000000000000000000600052604160045260246000fd5b610a048261085d565b810181811067ffffffffffffffff82111715610a2357610a226109cc565b5b80604052505050565b6000610a36610757565b9050610a4282826109fb565b919050565b600067ffffffffffffffff821115610a6257610a616109cc565b5b610a6b8261085d565b9050602081019050919050565b82818337600083830152505050565b6000610a9a610a9584610a47565b610a2c565b905082815260208101848484011115610ab657610ab56109c7565b5b610ac1848285610a78565b509392505050565b600082601f830112610ade57610add6109c2565b5b8135610aee848260208601610a87565b91505092915050565b60008060008060808587031215610b1157610b10610761565b5b6000610b1f8782880161078c565b945050602085013567ffffffffffffffff811115610b4057610b3f610766565b5b610b4c87828801610ac9565b935050604085013567ffffffffffffffff811115610b6d57610b6c610766565b5b610b7987828801610ac9565b9250506060610b8a878288016107c2565b91505092959194509250565b60008060008060808587031215610bb057610baf610761565b5b600085013567ffffffffffffffff811115610bce57610bcd610766565b5b610bda87828801610ac9565b945050602085013567ffffffffffffffff811115610bfb57610bfa610766565b5b610c0787828801610ac9565b935050604085013567ffffffffffffffff811115610c2857610c27610766565b5b610c3487828801610ac9565b925050606085013567ffffffffffffffff811115610c5557610c54610766565b5b610c6187828801610ac9565b91505092959194509250565b7f4e487b7100000000000000000000000000000000000000000000000000000000600052602260045260246000fd5b60006002820490506001821680610cb457607f821691505b602082108103610cc757610cc6610c6d565b5b50919050565b7f426174636820646f6573206e6f742065786973742e0000000000000000000000600082015250565b6000610d03601583610822565b9150610d0e82610ccd565b602082019050919050565b60006020820190508181036000830152610d3281610cf6565b9050919050565b60008190508160005260206000209050919050565b60006020601f8301049050919050565b600082821b905092915050565b600060088302610d9b7fffffffffffffffffffffffffffffffffffffffffffffffffffffffffffffffff82610d5e565b610da58683610d5e565b95508019841693508086168417925050509392505050565b6000819050919050565b6000610de2610ddd610dd8846107a1565b610dbd565b6107a1565b9050919050565b6000819050919050565b610dfc83610dc7565b610e10610e0882610de9565b848454610d6b565b825550505050565b600090565b610e25610e18565b610e30818484610df3565b505050565b5b81811015610e5457610e49600082610e1d565b600181019050610e36565b5050565b601f821115610e9957610e6a81610d39565b610e7384610d4e565b81016020851015610e82578190505b610e96610e8e85610d4e565b830182610e35565b50505b505050565b600082821c905092915050565b6000610ebc60001984600802610e9e565b1980831691505092915050565b6000610ed58383610eab565b9150826002028217905092915050565b610eee82610817565b67ffffffffffffffff811115610f0757610f066109cc565b5b610f118254610c9c565b610f1c828285610e58565b600060209050601f831160018114610f4f5760008415610f3d578287015190505b610f478582610ec9565b865550610faf565b601f198416610f5d86610d39565b60005b82811015610f8557848901518255600182019150602085019450602081019050610f60565b86831015610fa25784890151610f9e601f891682610eab565b8355505b6001600288020188555050505b505050505050565b60006040820190508181036000830152610fd1818561086e565b9050610fe060208301846108a7565b9392505050565b600081905092915050565b6000610ffd82610817565b6110078185610fe7565b9350611017818560208601610833565b80840191505092915050565b6000819050919050565b61103e611039826107a1565b611023565b82525050565b60006110508286610ff2565b915061105c8285610ff2565b9150611068828461102d565b602082019150819050949350505050565b7f426174636820616c7265616479206578697374732e0000000000000000000000600082015250565b60006110af601583610822565b91506110ba82611079565b602082019050919050565b600060208201905081810360008301526110de816110a2565b9050919050565b600060408201905081810360008301526110ff818561086e565b90508181036020830152611113818461086e565b9050939250505056fea264697066735822122083406f9559c2d9aa419996a482eae4fc0e20f997522582b13bb541e119841ff664736f6c63430008180033","opcodes":"PUSH1 0x80 PUSH1 0x40 MSTORE CALLVALUE DUP1 ISZERO PUSH2 0x10 JUMPI PUSH1 0x0 DUP1 REVERT JUMPDEST POP PUSH2 0x1152 DUP1 PUSH2 0x20 PUSH1 0x0 CODECOPY PUSH1 0x0 RETURN INVALID PUSH1 0x80 PUSH1 0x40 MSTORE CALLVALUE DUP1 ISZERO PUSH2 0x10 JUMPI PUSH1 0x0 DUP1 REVERT JUMPDEST POP PUSH1 0x4 CALLDATASIZE LT PUSH2 0x4C JUMPI PUSH1 0x0 CALLDATALOAD PUSH1 0xE0 SHR DUP1 PUSH4 0x5930479A EQ PUSH2 0x51 JUMPI DUP1 PUSH4 0x6CA02E92 EQ PUSH2 0x84 JUMPI DUP1 PUSH4 0x6D4DBC9A EQ PUSH2 0xB9 JUMPI DUP1 PUSH4 0xF3FBA468 EQ PUSH2 0xD5 JUMPI JUMPDEST PUSH1 0x0 DUP1 REVERT JUMPDEST PUSH2 0x6B PUSH1 0x4 DUP1 CALLDATASIZE SUB DUP2 ADD SWAP1 PUSH2 0x66 SWAP2 SWAP1 PUSH2 0x7D7 JUMP JUMPDEST PUSH2 0xF1 JUMP JUMPDEST PUSH1 0x40 MLOAD PUSH2 0x7B SWAP5 SWAP4 SWAP3 SWAP2 SWAP1 PUSH2 0x8B6 JUMP JUMPDEST PUSH1 0x40 MLOAD DUP1 SWAP2 SUB SWAP1 RETURN JUMPDEST PUSH2 0x9E PUSH1 0x4 DUP1 CALLDATASIZE SUB DUP2 ADD SWAP1 PUSH2 0x99 SWAP2 SWAP1 PUSH2 0x909 JUMP JUMPDEST PUSH2 0x24E JUMP JUMPDEST PUSH1 0x40 MLOAD PUSH2 0xB0 SWAP7 SWAP6 SWAP5 SWAP4 SWAP3 SWAP2 SWAP1 PUSH2 0x945 JUMP JUMPDEST PUSH1 0x40 MLOAD DUP1 SWAP2 SUB SWAP1 RETURN JUMPDEST PUSH2 0xD3 PUSH1 0x4 DUP1 CALLDATASIZE SUB DUP2 ADD SWAP1 PUSH2 0xCE SWAP2 SWAP1 PUSH2 0xAF7 JUMP JUMPDEST PUSH2 0x4AA JUMP JUMPDEST STOP JUMPDEST PUSH2 0xEF PUSH1 0x4 DUP1 CALLDATASIZE SUB DUP2 ADD SWAP1 PUSH2 0xEA SWAP2 SWAP1 PUSH2 0xB96 JUMP JUMPDEST PUSH2 0x5E1 JUMP JUMPDEST STOP JUMPDEST PUSH1 0x1 PUSH1 0x20 MSTORE DUP2 PUSH1 0x0 MSTORE PUSH1 0x40 PUSH1 0x0 KECCAK256 DUP2 DUP2 SLOAD DUP2 LT PUSH2 0x10D JUMPI PUSH1 0x0 DUP1 REVERT JUMPDEST SWAP1 PUSH1 0x0 MSTORE PUSH1 0x20 PUSH1 0x0 KECCAK256 SWAP1 PUSH1 0x4 MUL ADD PUSH1 0x0 SWAP2 POP SWAP2 POP POP DUP1 PUSH1 0x0 ADD DUP1 SLOAD PUSH2 0x131 SWAP1 PUSH2 0xC9C JUMP JUMPDEST DUP1 PUSH1 0x1F ADD PUSH1 0x20 DUP1 SWAP2 DIV MUL PUSH1 0x20 ADD PUSH1 0x40 MLOAD SWAP1 DUP2 ADD PUSH1 0x40 MSTORE DUP1 SWAP3 SWAP2 SWAP1 DUP2 DUP2 MSTORE PUSH1 0x20 ADD DUP3 DUP1 SLOAD PUSH2 0x15D SWAP1 PUSH2 0xC9C JUMP JUMPDEST DUP1 ISZERO PUSH2 0x1AA JUMPI DUP1 PUSH1 0x1F LT PUSH2 0x17F JUMPI PUSH2 0x100 DUP1 DUP4 SLOAD DIV MUL DUP4 MSTORE SWAP2 PUSH1 0x20 ADD SWAP2 PUSH2 0x1AA JUMP JUMPDEST DUP3 ADD SWAP2 SWAP1 PUSH1 0x0 MSTORE PUSH1 0x20 PUSH1 0x0 KECCAK256 SWAP1 JUMPDEST DUP2 SLOAD DUP2 MSTORE SWAP1 PUSH1 0x1 ADD SWAP1 PUSH1 0x20 ADD DUP1 DUP4 GT PUSH2 0x18D JUMPI DUP3 SWAP1 SUB PUSH1 0x1F AND DUP3 ADD SWAP2 JUMPDEST POP POP POP POP POP SWAP1 DUP1 PUSH1 0x1 ADD DUP1 SLOAD PUSH2 0x1BF SWAP1 PUSH2 0xC9C JUMP JUMPDEST DUP1 PUSH1 0x1F ADD PUSH1 0x20 DUP1 SWAP2 DIV MUL PUSH1 0x20 ADD PUSH1 0x40 MLOAD SWAP1 DUP2 ADD PUSH1 0x40 MSTORE DUP1 SWAP3 SWAP2 SWAP1 DUP2 DUP2 MSTORE PUSH1 0x20 ADD DUP3 DUP1 SLOAD PUSH2 0x1EB SWAP1 PUSH2 0xC9C JUMP JUMPDEST DUP1 ISZERO PUSH2 0x238 JUMPI DUP1 PUSH1 0x1F LT PUSH2 0x20D JUMPI PUSH2 0x100 DUP1 DUP4 SLOAD DIV MUL DUP4 MSTORE SWAP2 PUSH1 0x20 ADD SWAP2 PUSH2 0x238 JUMP JUMPDEST DUP3 ADD SWAP2 SWAP1 PUSH1 0x0 MSTORE PUSH1 0x20 PUSH1 0x0 KECCAK256 SWAP1 JUMPDEST DUP2 SLOAD DUP2 MSTORE SWAP1 PUSH1 0x1 ADD SWAP1 PUSH1 0x20 ADD DUP1 DUP4 GT PUSH2 0x21B JUMPI DUP3 SWAP1 SUB PUSH1 0x1F AND DUP3 ADD SWAP2 JUMPDEST POP POP POP POP POP SWAP1 DUP1 PUSH1 0x2 ADD SLOAD SWAP1 DUP1 PUSH1 0x3 ADD SLOAD SWAP1 POP DUP5 JUMP JUMPDEST PUSH1 0x0 PUSH1 0x20 MSTORE DUP1 PUSH1 0x0 MSTORE PUSH1 0x40 PUSH1 0x0 KECCAK256 PUSH1 0x0 SWAP2 POP SWAP1 POP DUP1 PUSH1 0x0 ADD SLOAD SWAP1 DUP1 PUSH1 0x1 ADD DUP1 SLOAD PUSH2 0x277 SWAP1 PUSH2 0xC9C JUMP JUMPDEST DUP1 PUSH1 0x1F ADD PUSH1 0x20 DUP1 SWAP2 DIV MUL PUSH1 0x20 ADD PUSH1 0x40 MLOAD SWAP1 DUP2 ADD PUSH1 0x40 MSTORE DUP1 SWAP3 SWAP2 SWAP1 DUP2 DUP2 MSTORE PUSH1 0x20 ADD DUP3 DUP1 SLOAD PUSH2 0x2A3 SWAP1 PUSH2 0xC9C JUMP JUMPDEST DUP1 ISZERO PUSH2 0x2F0 JUMPI DUP1 PUSH1 0x1F LT PUSH2 0x2C5 JUMPI PUSH2 0x100 DUP1 DUP4 SLOAD DIV MUL DUP4 MSTORE SWAP2 PUSH1 0x20 ADD SWAP2 PUSH2 0x2F0 JUMP JUMPDEST DUP3 ADD SWAP2 SWAP1 PUSH1 0x0 MSTORE PUSH1 0x20 PUSH1 0x0 KECCAK256 SWAP1 JUMPDEST DUP2 SLOAD DUP2 MSTORE SWAP1 PUSH1 0x1 ADD SWAP1 PUSH1 0x20 ADD DUP1 DUP4 GT PUSH2 0x2D3 JUMPI DUP3 SWAP1 SUB PUSH1 0x1F AND DUP3 ADD SWAP2 JUMPDEST POP POP POP POP POP SWAP1 DUP1 PUSH1 0x2 ADD DUP1 SLOAD PUSH2 0x305 SWAP1 PUSH2 0xC9C JUMP JUMPDEST DUP1 PUSH1 0x1F ADD PUSH1 0x20 DUP1 SWAP2 DIV MUL PUSH1 0x20 ADD PUSH1 0x40 MLOAD SWAP1 DUP2 ADD PUSH1 0x40 MSTORE DUP1 SWAP3 SWAP2 SWAP1 DUP2 DUP2 MSTORE PUSH1 0x20 ADD DUP3 DUP1 SLOAD PUSH2 0x331 SWAP1 PUSH2 0xC9C JUMP JUMPDEST DUP1 ISZERO PUSH2 0x37E JUMPI DUP1 PUSH1 0x1F LT PUSH2 0x353 JUMPI PUSH2 0x100 DUP1 DUP4 SLOAD DIV MUL DUP4 MSTORE SWAP2 PUSH1 0x20 ADD SWAP2 PUSH2 0x37E JUMP JUMPDEST DUP3 ADD SWAP2 SWAP1 PUSH1 0x0 MSTORE PUSH1 0x20 PUSH1 0x0 KECCAK256 SWAP1 JUMPDEST DUP2 SLOAD DUP2 MSTORE SWAP1 PUSH1 0x1 ADD SWAP1 PUSH1 0x20 ADD DUP1 DUP4 GT PUSH2 0x361 JUMPI DUP3 SWAP1 SUB PUSH1 0x1F AND DUP3 ADD SWAP2 JUMPDEST POP POP POP POP POP SWAP1 DUP1 PUSH1 0x3 ADD DUP1 SLOAD PUSH2 0x393 SWAP1 PUSH2 0xC9C JUMP JUMPDEST DUP1 PUSH1 0x1F ADD PUSH1 0x20 DUP1 SWAP2 DIV MUL PUSH1 0x20 ADD PUSH1 0x40 MLOAD SWAP1 DUP2 ADD PUSH1 0x40 MSTORE DUP1 SWAP3 SWAP2 SWAP1 DUP2 DUP2 MSTORE PUSH1 0x20 ADD DUP3 DUP1 SLOAD PUSH2 0x3BF SWAP1 PUSH2 0xC9C JUMP JUMPDEST DUP1 ISZERO PUSH2 0x40C JUMPI DUP1 PUSH1 0x1F LT PUSH2 0x3E1 JUMPI PUSH2 0x100 DUP1 DUP4 SLOAD DIV MUL DUP4 MSTORE SWAP2 PUSH1 0x20 ADD SWAP2 PUSH2 0x40C JUMP JUMPDEST DUP3 ADD SWAP2 SWAP1 PUSH1 0x0 MSTORE PUSH1 0x20 PUSH1 0x0 KECCAK256 SWAP1 JUMPDEST DUP2 SLOAD DUP2 MSTORE SWAP1 PUSH1 0x1 ADD SWAP1 PUSH1 0x20 ADD DUP1 DUP4 GT PUSH2 0x3EF JUMPI DUP3 SWAP1 SUB PUSH1 0x1F AND DUP3 ADD SWAP2 JUMPDEST POP POP POP POP POP SWAP1 DUP1 PUSH1 0x4 ADD DUP1 SLOAD PUSH2 0x421 SWAP1 PUSH2 0xC9C JUMP JUMPDEST DUP1 PUSH1 0x1F ADD PUSH1 0x20 DUP1 SWAP2 DIV MUL PUSH1 0x20 ADD PUSH1 0x40 MLOAD SWAP1 DUP2 ADD PUSH1 0x40 MSTORE DUP1 SWAP3 SWAP2 SWAP1 DUP2 DUP2 MSTORE PUSH1 0x20 ADD DUP3 DUP1 SLOAD PUSH2 0x44D SWAP1 PUSH2 0xC9C JUMP JUMPDEST DUP1 ISZERO PUSH2 0x49A JUMPI DUP1 PUSH1 0x1F LT PUSH2 0x46F JUMPI PUSH2 0x100 DUP1 DUP4 SLOAD DIV MUL DUP4 MSTORE SWAP2 PUSH1 0x20 ADD SWAP2 PUSH2 0x49A JUMP JUMPDEST DUP3 ADD SWAP2 SWAP1 PUSH1 0x0 MSTORE PUSH1 0x20 PUSH1 0x0 KECCAK256 SWAP1 JUMPDEST DUP2 SLOAD DUP2 MSTORE SWAP1 PUSH1 0x1 ADD SWAP1 PUSH1 0x20 ADD DUP1 DUP4 GT PUSH2 0x47D JUMPI DUP3 SWAP1 SUB PUSH1 0x1F AND DUP3 ADD SWAP2 JUMPDEST POP POP POP POP POP SWAP1 DUP1 PUSH1 0x5 ADD SLOAD SWAP1 POP DUP7 JUMP JUMPDEST PUSH1 0x0 DUP1 PUSH1 0x0 DUP7 DUP2 MSTORE PUSH1 0x20 ADD SWAP1 DUP2 MSTORE PUSH1 0x20 ADD PUSH1 0x0 KECCAK256 PUSH1 0x5 ADD SLOAD SUB PUSH2 0x502 JUMPI PUSH1 0x40 MLOAD PUSH32 0x8C379A000000000000000000000000000000000000000000000000000000000 DUP2 MSTORE PUSH1 0x4 ADD PUSH2 0x4F9 SWAP1 PUSH2 0xD19 JUMP JUMPDEST PUSH1 0x40 MLOAD DUP1 SWAP2 SUB SWAP1 REVERT JUMPDEST PUSH1 0x1 PUSH1 0x0 DUP6 DUP2 MSTORE PUSH1 0x20 ADD SWAP1 DUP2 MSTORE PUSH1 0x20 ADD PUSH1 0x0 KECCAK256 PUSH1 0x40 MLOAD DUP1 PUSH1 0x80 ADD PUSH1 0x40 MSTORE DUP1 DUP6 DUP2 MSTORE PUSH1 0x20 ADD DUP5 DUP2 MSTORE PUSH1 0x20 ADD DUP4 DUP2 MSTORE PUSH1 0x20 ADD TIMESTAMP DUP2 MSTORE POP SWAP1 DUP1 PUSH1 0x1 DUP2 SLOAD ADD DUP1 DUP3 SSTORE DUP1 SWAP2 POP POP PUSH1 0x1 SWAP1 SUB SWAP1 PUSH1 0x0 MSTORE PUSH1 0x20 PUSH1 0x0 KECCAK256 SWAP1 PUSH1 0x4 MUL ADD PUSH1 0x0 SWAP1 SWAP2 SWAP1 SWAP2 SWAP1 SWAP2 POP PUSH1 0x0 DUP3 ADD MLOAD DUP2 PUSH1 0x0 ADD SWAP1 DUP2 PUSH2 0x574 SWAP2 SWAP1 PUSH2 0xEE5 JUMP JUMPDEST POP PUSH1 0x20 DUP3 ADD MLOAD DUP2 PUSH1 0x1 ADD SWAP1 DUP2 PUSH2 0x58A SWAP2 SWAP1 PUSH2 0xEE5 JUMP JUMPDEST POP PUSH1 0x40 DUP3 ADD MLOAD DUP2 PUSH1 0x2 ADD SSTORE PUSH1 0x60 DUP3 ADD MLOAD DUP2 PUSH1 0x3 ADD SSTORE POP POP DUP4 PUSH32 0x5616A70A14144262A8F4674ABC7E3EDEA43FF78A7BDB188ED4202E5AD0C17E9F DUP5 DUP4 PUSH1 0x40 MLOAD PUSH2 0x5D3 SWAP3 SWAP2 SWAP1 PUSH2 0xFB7 JUMP JUMPDEST PUSH1 0x40 MLOAD DUP1 SWAP2 SUB SWAP1 LOG2 POP POP POP POP JUMP JUMPDEST PUSH1 0x0 DUP5 DUP4 TIMESTAMP PUSH1 0x40 MLOAD PUSH1 0x20 ADD PUSH2 0x5F8 SWAP4 SWAP3 SWAP2 SWAP1 PUSH2 0x1044 JUMP JUMPDEST PUSH1 0x40 MLOAD PUSH1 0x20 DUP2 DUP4 SUB SUB DUP2 MSTORE SWAP1 PUSH1 0x40 MSTORE DUP1 MLOAD SWAP1 PUSH1 0x20 ADD KECCAK256 SWAP1 POP PUSH1 0x0 DUP1 PUSH1 0x0 DUP4 DUP2 MSTORE PUSH1 0x20 ADD SWAP1 DUP2 MSTORE PUSH1 0x20 ADD PUSH1 0x0 KECCAK256 PUSH1 0x5 ADD SLOAD EQ PUSH2 0x668 JUMPI PUSH1 0x40 MLOAD PUSH32 0x8C379A000000000000000000000000000000000000000000000000000000000 DUP2 MSTORE PUSH1 0x4 ADD PUSH2 0x65F SWAP1 PUSH2 0x10C5 JUMP JUMPDEST PUSH1 0x40 MLOAD DUP1 SWAP2 SUB SWAP1 REVERT JUMPDEST PUSH1 0x40 MLOAD DUP1 PUSH1 0xC0 ADD PUSH1 0x40 MSTORE DUP1 DUP3 DUP2 MSTORE PUSH1 0x20 ADD DUP7 DUP2 MSTORE PUSH1 0x20 ADD DUP6 DUP2 MSTORE PUSH1 0x20 ADD DUP5 DUP2 MSTORE PUSH1 0x20 ADD DUP4 DUP2 MSTORE PUSH1 0x20 ADD TIMESTAMP DUP2 MSTORE POP PUSH1 0x0 DUP1 DUP4 DUP2 MSTORE PUSH1 0x20 ADD SWAP1 DUP2 MSTORE PUSH1 0x20 ADD PUSH1 0x0 KECCAK256 PUSH1 0x0 DUP3 ADD MLOAD DUP2 PUSH1 0x0 ADD SSTORE PUSH1 0x20 DUP3 ADD MLOAD DUP2 PUSH1 0x1 ADD SWAP1 DUP2 PUSH2 0x6C6 SWAP2 SWAP1 PUSH2 0xEE5 JUMP JUMPDEST POP PUSH1 0x40 DUP3 ADD MLOAD DUP2 PUSH1 0x2 ADD SWAP1 DUP2 PUSH2 0x6DC SWAP2 SWAP1 PUSH2 0xEE5 JUMP JUMPDEST POP PUSH1 0x60 DUP3 ADD MLOAD DUP2 PUSH1 0x3 ADD SWAP1 DUP2 PUSH2 0x6F2 SWAP2 SWAP1 PUSH2 0xEE5 JUMP JUMPDEST POP PUSH1 0x80 DUP3 ADD MLOAD DUP2 PUSH1 0x4 ADD SWAP1 DUP2 PUSH2 0x708 SWAP2 SWAP1 PUSH2 0xEE5 JUMP JUMPDEST POP PUSH1 0xA0 DUP3 ADD MLOAD DUP2 PUSH1 0x5 ADD SSTORE SWAP1 POP POP DUP1 PUSH32 0x8DECE642E5F22A7EB065A30D12681B707BB138E6B86FFE6338A8786B59EBCF16 DUP7 DUP6 PUSH1 0x40 MLOAD PUSH2 0x748 SWAP3 SWAP2 SWAP1 PUSH2 0x10E5 JUMP JUMPDEST PUSH1 0x40 MLOAD DUP1 SWAP2 SUB SWAP1 LOG2 POP POP POP POP POP JUMP JUMPDEST PUSH1 0x0 PUSH1 0x40 MLOAD SWAP1 POP SWAP1 JUMP JUMPDEST PUSH1 0x0 DUP1 REVERT JUMPDEST PUSH1 0x0 DUP1 REVERT JUMPDEST PUSH1 0x0 DUP2 SWAP1 POP SWAP2 SWAP1 POP JUMP JUMPDEST PUSH2 0x77E DUP2 PUSH2 0x76B JUMP JUMPDEST DUP2 EQ PUSH2 0x789 JUMPI PUSH1 0x0 DUP1 REVERT JUMPDEST POP JUMP JUMPDEST PUSH1 0x0 DUP2 CALLDATALOAD SWAP1 POP PUSH2 0x79B DUP2 PUSH2 0x775 JUMP JUMPDEST SWAP3 SWAP2 POP POP JUMP JUMPDEST PUSH1 0x0 DUP2 SWAP1 POP SWAP2 SWAP1 POP JUMP JUMPDEST PUSH2 0x7B4 DUP2 PUSH2 0x7A1 JUMP JUMPDEST DUP2 EQ PUSH2 0x7BF JUMPI PUSH1 0x0 DUP1 REVERT JUMPDEST POP JUMP JUMPDEST PUSH1 0x0 DUP2 CALLDATALOAD SWAP1 POP PUSH2 0x7D1 DUP2 PUSH2 0x7AB JUMP JUMPDEST SWAP3 SWAP2 POP POP JUMP JUMPDEST PUSH1 0x0 DUP1 PUSH1 0x40 DUP4 DUP6 SUB SLT ISZERO PUSH2 0x7EE JUMPI PUSH2 0x7ED PUSH2 0x761 JUMP JUMPDEST JUMPDEST PUSH1 0x0 PUSH2 0x7FC DUP6 DUP3 DUP7 ADD PUSH2 0x78C JUMP JUMPDEST SWAP3 POP POP PUSH1 0x20 PUSH2 0x80D DUP6 DUP3 DUP7 ADD PUSH2 0x7C2 JUMP JUMPDEST SWAP2 POP POP SWAP3 POP SWAP3 SWAP1 POP JUMP JUMPDEST PUSH1 0x0 DUP2 MLOAD SWAP1 POP SWAP2 SWAP1 POP JUMP JUMPDEST PUSH1 0x0 DUP3 DUP3 MSTORE PUSH1 0x20 DUP3 ADD SWAP1 POP SWAP3 SWAP2 POP POP JUMP JUMPDEST PUSH1 0x0 JUMPDEST DUP4 DUP2 LT ISZERO PUSH2 0x851 JUMPI DUP1 DUP3 ADD MLOAD DUP2 DUP5 ADD MSTORE PUSH1 0x20 DUP2 ADD SWAP1 POP PUSH2 0x836 JUMP JUMPDEST PUSH1 0x0 DUP5 DUP5 ADD MSTORE POP POP POP POP JUMP JUMPDEST PUSH1 0x0 PUSH1 0x1F NOT PUSH1 0x1F DUP4 ADD AND SWAP1 POP SWAP2 SWAP1 POP JUMP JUMPDEST PUSH1 0x0 PUSH2 0x879 DUP3 PUSH2 0x817 JUMP JUMPDEST PUSH2 0x883 DUP2 DUP6 PUSH2 0x822 JUMP JUMPDEST SWAP4 POP PUSH2 0x893 DUP2 DUP6 PUSH1 0x20 DUP7 ADD PUSH2 0x833 JUMP JUMPDEST PUSH2 0x89C DUP2 PUSH2 0x85D JUMP JUMPDEST DUP5 ADD SWAP2 POP POP SWAP3 SWAP2 POP POP JUMP JUMPDEST PUSH2 0x8B0 DUP2 PUSH2 0x7A1 JUMP JUMPDEST DUP3 MSTORE POP POP JUMP JUMPDEST PUSH1 0x0 PUSH1 0x80 DUP3 ADD SWAP1 POP DUP2 DUP2 SUB PUSH1 0x0 DUP4 ADD MSTORE PUSH2 0x8D0 DUP2 DUP8 PUSH2 0x86E JUMP JUMPDEST SWAP1 POP DUP2 DUP2 SUB PUSH1 0x20 DUP4 ADD MSTORE PUSH2 0x8E4 DUP2 DUP7 PUSH2 0x86E JUMP JUMPDEST SWAP1 POP PUSH2 0x8F3 PUSH1 0x40 DUP4 ADD DUP6 PUSH2 0x8A7 JUMP JUMPDEST PUSH2 0x900 PUSH1 0x60 DUP4 ADD DUP5 PUSH2 0x8A7 JUMP JUMPDEST SWAP6 SWAP5 POP POP POP POP POP JUMP JUMPDEST PUSH1 0x0 PUSH1 0x20 DUP3 DUP5 SUB SLT ISZERO PUSH2 0x91F JUMPI PUSH2 0x91E PUSH2 0x761 JUMP JUMPDEST JUMPDEST PUSH1 0x0 PUSH2 0x92D DUP5 DUP3 DUP6 ADD PUSH2 0x78C JUMP JUMPDEST SWAP2 POP POP SWAP3 SWAP2 POP POP JUMP JUMPDEST PUSH2 0x93F DUP2 PUSH2 0x76B JUMP JUMPDEST DUP3 MSTORE POP POP JUMP JUMPDEST PUSH1 0x0 PUSH1 0xC0 DUP3 ADD SWAP1 POP PUSH2 0x95A PUSH1 0x0 DUP4 ADD DUP10 PUSH2 0x936 JUMP JUMPDEST DUP2 DUP2 SUB PUSH1 0x20 DUP4 ADD MSTORE PUSH2 0x96C DUP2 DUP9 PUSH2 0x86E JUMP JUMPDEST SWAP1 POP DUP2 DUP2 SUB PUSH1 0x40 DUP4 ADD MSTORE PUSH2 0x980 DUP2 DUP8 PUSH2 0x86E JUMP JUMPDEST SWAP1 POP DUP2 DUP2 SUB PUSH1 0x60 DUP4 ADD MSTORE PUSH2 0x994 DUP2 DUP7 PUSH2 0x86E JUMP JUMPDEST SWAP1 POP DUP2 DUP2 SUB PUSH1 0x80 DUP4 ADD MSTORE PUSH2 0x9A8 DUP2 DUP6 PUSH2 0x86E JUMP JUMPDEST SWAP1 POP PUSH2 0x9B7 PUSH1 0xA0 DUP4 ADD DUP5 PUSH2 0x8A7 JUMP JUMPDEST SWAP8 SWAP7 POP POP POP POP POP POP POP JUMP JUMPDEST PUSH1 0x0 DUP1 REVERT JUMPDEST PUSH1 0x0 DUP1 REVERT JUMPDEST PUSH32 0x4E487B7100000000000000000000000000000000000000000000000000000000 PUSH1 0x0 MSTORE PUSH1 0x41 PUSH1 0x4 MSTORE PUSH1 0x24 PUSH1 0x0 REVERT JUMPDEST PUSH2 0xA04 DUP3 PUSH2 0x85D JUMP JUMPDEST DUP2 ADD DUP2 DUP2 LT PUSH8 0xFFFFFFFFFFFFFFFF DUP3 GT OR ISZERO PUSH2 0xA23 JUMPI PUSH2 0xA22 PUSH2 0x9CC JUMP JUMPDEST JUMPDEST DUP1 PUSH1 0x40 MSTORE POP POP POP JUMP JUMPDEST PUSH1 0x0 PUSH2 0xA36 PUSH2 0x757 JUMP JUMPDEST SWAP1 POP PUSH2 0xA42 DUP3 DUP3 PUSH2 0x9FB JUMP JUMPDEST SWAP2 SWAP1 POP JUMP JUMPDEST PUSH1 0x0 PUSH8 0xFFFFFFFFFFFFFFFF DUP3 GT ISZERO PUSH2 0xA62 JUMPI PUSH2 0xA61 PUSH2 0x9CC JUMP JUMPDEST JUMPDEST PUSH2 0xA6B DUP3 PUSH2 0x85D JUMP JUMPDEST SWAP1 POP PUSH1 0x20 DUP2 ADD SWAP1 POP SWAP2 SWAP1 POP JUMP JUMPDEST DUP3 DUP2 DUP4 CALLDATACOPY PUSH1 0x0 DUP4 DUP4 ADD MSTORE POP POP POP JUMP JUMPDEST PUSH1 0x0 PUSH2 0xA9A PUSH2 0xA95 DUP5 PUSH2 0xA47 JUMP JUMPDEST PUSH2 0xA2C JUMP JUMPDEST SWAP1 POP DUP3 DUP2 MSTORE PUSH1 0x20 DUP2 ADD DUP5 DUP5 DUP5 ADD GT ISZERO PUSH2 0xAB6 JUMPI PUSH2 0xAB5 PUSH2 0x9C7 JUMP JUMPDEST JUMPDEST PUSH2 0xAC1 DUP5 DUP3 DUP6 PUSH2 0xA78 JUMP JUMPDEST POP SWAP4 SWAP3 POP POP POP JUMP JUMPDEST PUSH1 0x0 DUP3 PUSH1 0x1F DUP4 ADD SLT PUSH2 0xADE JUMPI PUSH2 0xADD PUSH2 0x9C2 JUMP JUMPDEST JUMPDEST DUP2 CALLDATALOAD PUSH2 0xAEE DUP5 DUP3 PUSH1 0x20 DUP7 ADD PUSH2 0xA87 JUMP JUMPDEST SWAP2 POP POP SWAP3 SWAP2 POP POP JUMP JUMPDEST PUSH1 0x0 DUP1 PUSH1 0x0 DUP1 PUSH1 0x80 DUP6 DUP8 SUB SLT ISZERO PUSH2 0xB11 JUMPI PUSH2 0xB10 PUSH2 0x761 JUMP JUMPDEST JUMPDEST PUSH1 0x0 PUSH2 0xB1F DUP8 DUP3 DUP9 ADD PUSH2 0x78C JUMP JUMPDEST SWAP5 POP POP PUSH1 0x20 DUP6 ADD CALLDATALOAD PUSH8 0xFFFFFFFFFFFFFFFF DUP2 GT ISZERO PUSH2 0xB40 JUMPI PUSH2 0xB3F PUSH2 0x766 JUMP JUMPDEST JUMPDEST PUSH2 0xB4C DUP8 DUP3 DUP9 ADD PUSH2 0xAC9 JUMP JUMPDEST SWAP4 POP POP PUSH1 0x40 DUP6 ADD CALLDATALOAD PUSH8 0xFFFFFFFFFFFFFFFF DUP2 GT ISZERO PUSH2 0xB6D JUMPI PUSH2 0xB6C PUSH2 0x766 JUMP JUMPDEST JUMPDEST PUSH2 0xB79 DUP8 DUP3 DUP9 ADD PUSH2 0xAC9 JUMP JUMPDEST SWAP3 POP POP PUSH1 0x60 PUSH2 0xB8A DUP8 DUP3 DUP9 ADD PUSH2 0x7C2 JUMP JUMPDEST SWAP2 POP POP SWAP3 SWAP6 SWAP2 SWAP5 POP SWAP3 POP JUMP JUMPDEST PUSH1 0x0 DUP1 PUSH1 0x0 DUP1 PUSH1 0x80 DUP6 DUP8 SUB SLT ISZERO PUSH2 0xBB0 JUMPI PUSH2 0xBAF PUSH2 0x761 JUMP JUMPDEST JUMPDEST PUSH1 0x0 DUP6 ADD CALLDATALOAD PUSH8 0xFFFFFFFFFFFFFFFF DUP2 GT ISZERO PUSH2 0xBCE JUMPI PUSH2 0xBCD PUSH2 0x766 JUMP JUMPDEST JUMPDEST PUSH2 0xBDA DUP8 DUP3 DUP9 ADD PUSH2 0xAC9 JUMP JUMPDEST SWAP5 POP POP PUSH1 0x20 DUP6 ADD CALLDATALOAD PUSH8 0xFFFFFFFFFFFFFFFF DUP2 GT ISZERO PUSH2 0xBFB JUMPI PUSH2 0xBFA PUSH2 0x766 JUMP JUMPDEST JUMPDEST PUSH2 0xC07 DUP8 DUP3 DUP9 ADD PUSH2 0xAC9 JUMP JUMPDEST SWAP4 POP POP PUSH1 0x40 DUP6 ADD CALLDATALOAD PUSH8 0xFFFFFFFFFFFFFFFF DUP2 GT ISZERO PUSH2 0xC28 JUMPI PUSH2 0xC27 PUSH2 0x766 JUMP JUMPDEST JUMPDEST PUSH2 0xC34 DUP8 DUP3 DUP9 ADD PUSH2 0xAC9 JUMP JUMPDEST SWAP3 POP POP PUSH1 0x60 DUP6 ADD CALLDATALOAD PUSH8 0xFFFFFFFFFFFFFFFF DUP2 GT ISZERO PUSH2 0xC55 JUMPI PUSH2 0xC54 PUSH2 0x766 JUMP JUMPDEST JUMPDEST PUSH2 0xC61 DUP8 DUP3 DUP9 ADD PUSH2 0xAC9 JUMP JUMPDEST SWAP2 POP POP SWAP3 SWAP6 SWAP2 SWAP5 POP SWAP3 POP JUMP JUMPDEST PUSH32 0x4E487B7100000000000000000000000000000000000000000000000000000000 PUSH1 0x0 MSTORE PUSH1 0x22 PUSH1 0x4 MSTORE PUSH1 0x24 PUSH1 0x0 REVERT JUMPDEST PUSH1 0x0 PUSH1 0x2 DUP3 DIV SWAP1 POP PUSH1 0x1 DUP3 AND DUP1 PUSH2 0xCB4 JUMPI PUSH1 0x7F DUP3 AND SWAP2 POP JUMPDEST PUSH1 0x20 DUP3 LT DUP2 SUB PUSH2 0xCC7 JUMPI PUSH2 0xCC6 PUSH2 0xC6D JUMP JUMPDEST JUMPDEST POP SWAP2 SWAP1 POP JUMP JUMPDEST PUSH32 0x426174636820646F6573206E6F742065786973742E0000000000000000000000 PUSH1 0x0 DUP3 ADD MSTORE POP JUMP JUMPDEST PUSH1 0x0 PUSH2 0xD03 PUSH1 0x15 DUP4 PUSH2 0x822 JUMP JUMPDEST SWAP2 POP PUSH2 0xD0E DUP3 PUSH2 0xCCD JUMP JUMPDEST PUSH1 0x20 DUP3 ADD SWAP1 POP SWAP2 SWAP1 POP JUMP JUMPDEST PUSH1 0x0 PUSH1 0x20 DUP3 ADD SWAP1 POP DUP2 DUP2 SUB PUSH1 0x0 DUP4 ADD MSTORE PUSH2 0xD32 DUP2 PUSH2 0xCF6 JUMP JUMPDEST SWAP1 POP SWAP2 SWAP1 POP JUMP JUMPDEST PUSH1 0x0 DUP2 SWAP1 POP DUP2 PUSH1 0x0 MSTORE PUSH1 0x20 PUSH1 0x0 KECCAK256 SWAP1 POP SWAP2 SWAP1 POP JUMP JUMPDEST PUSH1 0x0 PUSH1 0x20 PUSH1 0x1F DUP4 ADD DIV SWAP1 POP SWAP2 SWAP1 POP JUMP JUMPDEST PUSH1 0x0 DUP3 DUP3 SHL SWAP1 POP SWAP3 SWAP2 POP POP JUMP JUMPDEST PUSH1 0x0 PUSH1 0x8 DUP4 MUL PUSH2 0xD9B PUSH32 0xFFFFFFFFFFFFFFFFFFFFFFFFFFFFFFFFFFFFFFFFFFFFFFFFFFFFFFFFFFFFFFFF DUP3 PUSH2 0xD5E JUMP JUMPDEST PUSH2 0xDA5 DUP7 DUP4 PUSH2 0xD5E JUMP JUMPDEST SWAP6 POP DUP1 NOT DUP5 AND SWAP4 POP DUP1 DUP7 AND DUP5 OR SWAP3 POP POP POP SWAP4 SWAP3 POP POP POP JUMP JUMPDEST PUSH1 0x0 DUP2 SWAP1 POP SWAP2 SWAP1 POP JUMP JUMPDEST PUSH1 0x0 PUSH2 0xDE2 PUSH2 0xDDD PUSH2 0xDD8 DUP5 PUSH2 0x7A1 JUMP JUMPDEST PUSH2 0xDBD JUMP JUMPDEST PUSH2 0x7A1 JUMP JUMPDEST SWAP1 POP SWAP2 SWAP1 POP JUMP JUMPDEST PUSH1 0x0 DUP2 SWAP1 POP SWAP2 SWAP1 POP JUMP JUMPDEST PUSH2 0xDFC DUP4 PUSH2 0xDC7 JUMP JUMPDEST PUSH2 0xE10 PUSH2 0xE08 DUP3 PUSH2 0xDE9 JUMP JUMPDEST DUP5 DUP5 SLOAD PUSH2 0xD6B JUMP JUMPDEST DUP3 SSTORE POP POP POP POP JUMP JUMPDEST PUSH1 0x0 SWAP1 JUMP JUMPDEST PUSH2 0xE25 PUSH2 0xE18 JUMP JUMPDEST PUSH2 0xE30 DUP2 DUP5 DUP5 PUSH2 0xDF3 JUMP JUMPDEST POP POP POP JUMP JUMPDEST JUMPDEST DUP2 DUP2 LT ISZERO PUSH2 0xE54 JUMPI PUSH2 0xE49 PUSH1 0x0 DUP3 PUSH2 0xE1D JUMP JUMPDEST PUSH1 0x1 DUP2 ADD SWAP1 POP PUSH2 0xE36 JUMP JUMPDEST POP POP JUMP JUMPDEST PUSH1 0x1F DUP3 GT ISZERO PUSH2 0xE99 JUMPI PUSH2 0xE6A DUP2 PUSH2 0xD39 JUMP JUMPDEST PUSH2 0xE73 DUP5 PUSH2 0xD4E JUMP JUMPDEST DUP2 ADD PUSH1 0x20 DUP6 LT ISZERO PUSH2 0xE82 JUMPI DUP2 SWAP1 POP JUMPDEST PUSH2 0xE96 PUSH2 0xE8E DUP6 PUSH2 0xD4E JUMP JUMPDEST DUP4 ADD DUP3 PUSH2 0xE35 JUMP JUMPDEST POP POP JUMPDEST POP POP POP JUMP JUMPDEST PUSH1 0x0 DUP3 DUP3 SHR SWAP1 POP SWAP3 SWAP2 POP POP JUMP JUMPDEST PUSH1 0x0 PUSH2 0xEBC PUSH1 0x0 NOT DUP5 PUSH1 0x8 MUL PUSH2 0xE9E JUMP JUMPDEST NOT DUP1 DUP4 AND SWAP2 POP POP SWAP3 SWAP2 POP POP JUMP JUMPDEST PUSH1 0x0 PUSH2 0xED5 DUP4 DUP4 PUSH2 0xEAB JUMP JUMPDEST SWAP2 POP DUP3 PUSH1 0x2 MUL DUP3 OR SWAP1 POP SWAP3 SWAP2 POP POP JUMP JUMPDEST PUSH2 0xEEE DUP3 PUSH2 0x817 JUMP JUMPDEST PUSH8 0xFFFFFFFFFFFFFFFF DUP2 GT ISZERO PUSH2 0xF07 JUMPI PUSH2 0xF06 PUSH2 0x9CC JUMP JUMPDEST JUMPDEST PUSH2 0xF11 DUP3 SLOAD PUSH2 0xC9C JUMP JUMPDEST PUSH2 0xF1C DUP3 DUP3 DUP6 PUSH2 0xE58 JUMP JUMPDEST PUSH1 0x0 PUSH1 0x20 SWAP1 POP PUSH1 0x1F DUP4 GT PUSH1 0x1 DUP2 EQ PUSH2 0xF4F JUMPI PUSH1 0x0 DUP5 ISZERO PUSH2 0xF3D JUMPI DUP3 DUP8 ADD MLOAD SWAP1 POP JUMPDEST PUSH2 0xF47 DUP6 DUP3 PUSH2 0xEC9 JUMP JUMPDEST DUP7 SSTORE POP PUSH2 0xFAF JUMP JUMPDEST PUSH1 0x1F NOT DUP5 AND PUSH2 0xF5D DUP7 PUSH2 0xD39 JUMP JUMPDEST PUSH1 0x0 JUMPDEST DUP3 DUP2 LT ISZERO PUSH2 0xF85 JUMPI DUP5 DUP10 ADD MLOAD DUP3 SSTORE PUSH1 0x1 DUP3 ADD SWAP2 POP PUSH1 0x20 DUP6 ADD SWAP5 POP PUSH1 0x20 DUP2 ADD SWAP1 POP PUSH2 0xF60 JUMP JUMPDEST DUP7 DUP4 LT ISZERO PUSH2 0xFA2 JUMPI DUP5 DUP10 ADD MLOAD PUSH2 0xF9E PUSH1 0x1F DUP10 AND DUP3 PUSH2 0xEAB JUMP JUMPDEST DUP4 SSTORE POP JUMPDEST PUSH1 0x1 PUSH1 0x2 DUP9 MUL ADD DUP9 SSTORE POP POP POP JUMPDEST POP POP POP POP POP POP JUMP JUMPDEST PUSH1 0x0 PUSH1 0x40 DUP3 ADD SWAP1 POP DUP2 DUP2 SUB PUSH1 0x0 DUP4 ADD MSTORE PUSH2 0xFD1 DUP2 DUP6 PUSH2 0x86E JUMP JUMPDEST SWAP1 POP PUSH2 0xFE0 PUSH1 0x20 DUP4 ADD DUP5 PUSH2 0x8A7 JUMP JUMPDEST SWAP4 SWAP3 POP POP POP JUMP JUMPDEST PUSH1 0x0 DUP2 SWAP1 POP SWAP3 SWAP2 POP POP JUMP JUMPDEST PUSH1 0x0 PUSH2 0xFFD DUP3 PUSH2 0x817 JUMP JUMPDEST PUSH2 0x1007 DUP2 DUP6 PUSH2 0xFE7 JUMP JUMPDEST SWAP4 POP PUSH2 0x1017 DUP2 DUP6 PUSH1 0x20 DUP7 ADD PUSH2 0x833 JUMP JUMPDEST DUP1 DUP5 ADD SWAP2 POP POP SWAP3 SWAP2 POP POP JUMP JUMPDEST PUSH1 0x0 DUP2 SWAP1 POP SWAP2 SWAP1 POP JUMP JUMPDEST PUSH2 0x103E PUSH2 0x1039 DUP3 PUSH2 0x7A1 JUMP JUMPDEST PUSH2 0x1023 JUMP JUMPDEST DUP3 MSTORE POP POP JUMP JUMPDEST PUSH1 0x0 PUSH2 0x1050 DUP3 DUP7 PUSH2 0xFF2 JUMP JUMPDEST SWAP2 POP PUSH2 0x105C DUP3 DUP6 PUSH2 0xFF2 JUMP JUMPDEST SWAP2 POP PUSH2 0x1068 DUP3 DUP5 PUSH2 0x102D JUMP JUMPDEST PUSH1 0x20 DUP3 ADD SWAP2 POP DUP2 SWAP1 POP SWAP5 SWAP4 POP POP POP POP JUMP JUMPDEST PUSH32 0x426174636820616C7265616479206578697374732E0000000000000000000000 PUSH1 0x0 DUP3 ADD MSTORE POP JUMP JUMPDEST PUSH1 0x0 PUSH2 0x10AF PUSH1 0x15 DUP4 PUSH2 0x822 JUMP JUMPDEST SWAP2 POP PUSH2 0x10BA DUP3 PUSH2 0x1079 JUMP JUMPDEST PUSH1 0x20 DUP3 ADD SWAP1 POP SWAP2 SWAP1 POP JUMP JUMPDEST PUSH1 0x0 PUSH1 0x20 DUP3 ADD SWAP1 POP DUP2 DUP2 SUB PUSH1 0x0 DUP4 ADD MSTORE PUSH2 0x10DE DUP2 PUSH2 0x10A2 JUMP JUMPDEST SWAP1 POP SWAP2 SWAP1 POP JUMP JUMPDEST PUSH1 0x0 PUSH1 0x40 DUP3 ADD SWAP1 POP DUP2 DUP2 SUB PUSH1 0x0 DUP4 ADD MSTORE PUSH2 0x10FF DUP2 DUP6 PUSH2 0x86E JUMP JUMPDEST SWAP1 POP DUP2 DUP2 SUB PUSH1 0x20 DUP4 ADD MSTORE PUSH2 0x1113 DUP2 DUP5 PUSH2 0x86E JUMP JUMPDEST SWAP1 POP SWAP4 SWAP3 POP POP POP JUMP INVALID LOG2 PUSH5 0x6970667358 0x22 SLT KECCAK256 DUP4 BLOCKHASH PUSH16 0x9559C2D9AA419996A482EAE4FC0E20F9 SWAP8 MSTORE 0x25 DUP3 0xB1 EXTCODESIZE 0xB5 COINBASE 0xE1 NOT DUP5 0x1F 0xF6 PUSH5 0x736F6C6343 STOP ADDMOD XOR STOP CALLER "},"methodIdentifiers":{"createProductBatch(string,string,string,string)":"f3fba468","logTransfer(bytes32,string,string,uint256)":"6d4dbc9a","productBatches(bytes32)":"6ca02e92","transferHistory(bytes32,uint256)":"5930479a"}}}}}