{
  "_format": "hh-sol-artifact-1",
  "contractName": "Traceability",
  "sourceName": "contracts/Traceability.sol",
  "abi": [
    {
      "anonymous": false,
      "inputs": [
        {
          "indexed": true,
          "internalType": "bytes32",
          "name": "batchId",
          "type": "bytes32"
        },
        {
          "indexed": false,
          "internalType": "string",
          "name": "productId",
          "type": "string"
        },
        {
          "indexed": false,
          "internalType": "string",
          "name": "supplierId",
          "type": "string"
        }
      ],
      "name": "BatchCreated",
      "type": "event"
    },
    {
      "anonymous": false,
      "inputs": [
        {
          "indexed": true,
          "internalType": "bytes32",
          "name": "batchId",
          "type": "bytes32"
        },
        {
          "indexed": false,
          "internalType": "string",
          "name": "vendorId",
          "type": "string"
        },
        {
          "indexed": false,
          "internalType": "uint256",
          "name": "quantity",
          "type": "uint256"
        }
      ],
      "name": "BatchTransferred",
      "type": "event"
    },
    {
      "inputs": [
        {
          "internalType": "string",
          "name": "_productId",
          "type": "string"
        },
        {
          "internalType": "string",
          "name": "_productName",
          "type": "string"
        },
        {
          "internalType": "string",
          "name": "_supplierId",
          "type": "string"
        },
        {
          "internalType": "string",
          "name": "_origin",
          "type": "string"
        }
      ],
      "name": "createProductBatch",
      "outputs": [],
      "stateMutability": "nonpayable",
      "type": "function"
    },
    {
      "inputs": [
        {
          "internalType": "bytes32",
          "name": "_batchId",
          "type": "bytes32"
        },
        {
          "internalType": "string",
          "name": "_vendorId",
          "type": "string"
        },
        {
          "internalType": "string",
          "name": "_orderId",
          "type": "string"
        },
        {
          "internalType": "uint256",
          "name": "_quantity",
          "type": "uint256"
        }
      ],
      "name": "logTransfer",
      "outputs": [],
      "stateMutability": "nonpayable",
      "type": "function"
    },
    {
      "inputs": [
        {
          "internalType": "bytes32",
          "name": "",
          "type": "bytes32"
        }
      ],
      "name": "productBatches",
      "outputs": [
        {
          "internalType": "bytes32",
          "name": "batchId",
          "type": "bytes32"
        },
        {
          "internalType": "string",
          "name": "productId",
          "type": "string"
        },
        {
          "internalType": "string",
          "name": "productName",
          "type": "string"
        },
        {
          "internalType": "string",
          "name": "supplierId",
          "type": "string"
        },
        {
          "internalType": "string",
          "name": "origin",
          "type": "string"
        },
        {
          "internalType": "uint256",
          "name": "creationTimestamp",
          "type": "uint256"
        }
      ],
      "stateMutability": "view",
      "type": "function"
    },
    {
      "inputs": [
        {
          "internalType": "bytes32",
          "name": "",
          "type": "bytes32"
        },
        {
          "internalType": "uint256",
          "name": "",
          "type": "uint256"
        }
      ],
      "name": "transferHistory",
      "outputs": [
        {
          "internalType": "string",
          "name": "vendorId",
          "type": "string"
        },
        {
          "internalType": "string",
          "name": "orderId",
          "type": "string"
        },
        {
          "internalType": "uint256",
          "name": "quantity",
          "type": "uint256"
        },
        {
          "internalType": "uint256",
          "name": "transferTimestamp",
          "type": "uint256"
        }
      ],
      "stateMutability": "view",
      "type": "function"
    }
  ],
  "bytecode": "0x608060405234801561001057600080fd5b50611152806100206000396000f3fe608060405234801561001057600080fd5b506004361061004c5760003560e01c80635930479a146100515780636ca02e92146100845780636d4dbc9a146100b9578063f3fba468146100d5575b600080fd5b61006b600480360381019061006691906107d7565b6100f1565b60405161007b94939291906108b6565b60405180910390f35b61009e60048036038101906100999190610909565b61024e565b6040516100b096959493929190610945565b60405180910390f35b6100d360048036038101906100ce9190610af7565b6104aa565b005b6100ef60048036038101906100ea9190610b96565b6105e1565b005b6001602052816000526040600020818154811061010d57600080fd5b90600052602060002090600402016000915091505080600001805461013190610c9c565b80601f016020809104026020016040519081016040528092919081815260200182805461015d90610c9c565b80156101aa5780601f1061017f576101008083540402835291602001916101aa565b820191906000526020600020905b81548152906001019060200180831161018d57829003601f168201915b5050505050908060010180546101bf90610c9c565b80601f01602080910402602001604051908101604052809291908181526020018280546101eb90610c9c565b80156102385780601f1061020d57610100808354040283529160200191610238565b820191906000526020600020905b81548152906001019060200180831161021b57829003601f168201915b5050505050908060020154908060030154905084565b600060205280600052604060002060009150905080600001549080600101805461027790610c9c565b80601f01602080910402602001604051908101604052809291908181526020018280546102a390610c9c565b80156102f05780601f106102c5576101008083540402835291602001916102f0565b820191906000526020600020905b8154815290600101906020018083116102d357829003601f168201915b50505050509080600201805461030590610c9c565b80601f016020809104026020016040519081016040528092919081815260200182805461033190610c9c565b801561037e5780601f106103535761010080835404028352916020019161037e565b820191906000526020600020905b81548152906001019060200180831161036157829003601f168201915b50505050509080600301805461039390610c9c565b80601f01602080910402602001604051908101604052809291908181526020018280546103bf90610c9c565b801561040c5780601f106103e15761010080835404028352916020019161040c565b820191906000526020600020905b8154815290600101906020018083116103ef57829003601f168201915b50505050509080600401805461042190610c9c565b80601f016020809104026020016040519081016040528092919081815260200182805461044d90610c9c565b801561049a5780601f1061046f5761010080835404028352916020019161049a565b820191906000526020600020905b81548152906001019060200180831161047d57829003601f168201915b5050505050908060050154905086565b60008060008681526020019081526020016000206005015403610502576040517f08c379a00000000000000000000000000000000000000000000000000000000081526004016104f990610d19565b60405180910390fd5b60016000858152602001908152602001600020604051806080016040528085815260200184815260200183815260200142815250908060018154018082558091505060019003906000526020600020906004020160009091909190915060008201518160000190816105749190610ee5565b50602082015181600101908161058a9190610ee5565b5060408201518160020155606082015181600301555050837f5616a70a14144262a8f4674abc7e3edea43ff78a7bdb188ed4202e5ad0c17e9f84836040516105d3929190610fb7565b60405180910390a250505050565b60008483426040516020016105f893929190611044565b60405160208183030381529060405280519060200120905060008060008381526020019081526020016000206005015414610668576040517f08c379a000000000000000000000000000000000000000000000000000000000815260040161065f906110c5565b60405180910390fd5b6040518060c00160405280828152602001868152602001858152602001848152602001838152602001428152506000808381526020019081526020016000206000820151816000015560208201518160010190816106c69190610ee5565b5060408201518160020190816106dc9190610ee5565b5060608201518160030190816106f29190610ee5565b5060808201518160040190816107089190610ee5565b5060a08201518160050155905050807f8dece642e5f22a7eb065a30d12681b707bb138e6b86ffe6338a8786b59ebcf1686856040516107489291906110e5565b60405180910390a25050505050565b6000604051905090565b600080fd5b600080fd5b6000819050919050565b61077e8161076b565b811461078957600080fd5b50565b60008135905061079b81610775565b92915050565b6000819050919050565b6107b4816107a1565b81146107bf57600080fd5b50565b6000813590506107d1816107ab565b92915050565b600080604083850312156107ee576107ed610761565b5b60006107fc8582860161078c565b925050602061080d858286016107c2565b9150509250929050565b600081519050919050565b600082825260208201905092915050565b60005b83811015610851578082015181840152602081019050610836565b60008484015250505050565b6000601f19601f8301169050919050565b600061087982610817565b6108838185610822565b9350610893818560208601610833565b61089c8161085d565b840191505092915050565b6108b0816107a1565b82525050565b600060808201905081810360008301526108d0818761086e565b905081810360208301526108e4818661086e565b90506108f360408301856108a7565b61090060608301846108a7565b95945050505050565b60006020828403121561091f5761091e610761565b5b600061092d8482850161078c565b91505092915050565b61093f8161076b565b82525050565b600060c08201905061095a6000830189610936565b818103602083015261096c818861086e565b90508181036040830152610980818761086e565b90508181036060830152610994818661086e565b905081810360808301526109a8818561086e565b90506109b760a08301846108a7565b979650505050505050565b600080fd5b600080fd5b7f4e487b7100000000000000000000000000000000000000000000000000000000600052604160045260246000fd5b610a048261085d565b810181811067ffffffffffffffff82111715610a2357610a226109cc565b5b80604052505050565b6000610a36610757565b9050610a4282826109fb565b919050565b600067ffffffffffffffff821115610a6257610a616109cc565b5b610a6b8261085d565b9050602081019050919050565b82818337600083830152505050565b6000610a9a610a9584610a47565b610a2c565b905082815260208101848484011115610ab657610ab56109c7565b5b610ac1848285610a78565b509392505050565b600082601f830112610ade57610add6109c2565b5b8135610aee848260208601610a87565b91505092915050565b60008060008060808587031215610b1157610b10610761565b5b6000610b1f8782880161078c565b945050602085013567ffffffffffffffff811115610b4057610b3f610766565b5b610b4c87828801610ac9565b935050604085013567ffffffffffffffff811115610b6d57610b6c610766565b5b610b7987828801610ac9565b9250506060610b8a878288016107c2565b91505092959194509250565b60008060008060808587031215610bb057610baf610761565b5b600085013567ffffffffffffffff811115610bce57610bcd610766565b5b610bda87828801610ac9565b945050602085013567ffffffffffffffff811115610bfb57610bfa610766565b5b610c0787828801610ac9565b935050604085013567ffffffffffffffff811115610c2857610c27610766565b5b610c3487828801610ac9565b925050606085013567ffffffffffffffff811115610c5557610c54610766565b5b610c6187828801610ac9565b91505092959194509250565b7f4e487b7100000000000000000000000000000000000000000000000000000000600052602260045260246000fd5b60006002820490506001821680610cb457607f821691505b602082108103610cc757610cc6610c6d565b5b50919050565b7f426174636820646f6573206e6f742065786973742e0000000000000000000000600082015250565b6000610d03601583610822565b9150610d0e82610ccd565b602082019050919050565b60006020820190508181036000830152610d3281610cf6565b9050919050565b60008190508160005260206000209050919050565b60006020601f8301049050919050565b600082821b905092915050565b600060088302610d9b7fffffffffffffffffffffffffffffffffffffffffffffffffffffffffffffffff82610d5e565b610da58683610d5e565b95508019841693508086168417925050509392505050565b6000819050919050565b6000610de2610ddd610dd8846107a1565b610dbd565b6107a1565b9050919050565b6000819050919050565b610dfc83610dc7565b610e10610e0882610de9565b848454610d6b565b825550505050565b600090565b610e25610e18565b610e30818484610df3565b505050565b5b81811015610e5457610e49600082610e1d565b600181019050610e36565b5050565b601f821115610e9957610e6a81610d39565b610e7384610d4e565b81016020851015610e82578190505b610e96610e8e85610d4e565b830182610e35565b50505b505050565b600082821c905092915050565b6000610ebc60001984600802610e9e565b1980831691505092915050565b6000610ed58383610eab565b9150826002028217905092915050565b610eee82610817565b67ffffffffffffffff811115610f0757610f066109cc565b5b610f118254610c9c565b610f1c828285610e58565b600060209050601f831160018114610f4f5760008415610f3d578287015190505b610f478582610ec9565b865550610faf565b601f198416610f5d86610d39565b60005b82811015610f8557848901518255600182019150602085019450602081019050610f60565b86831015610fa25784890151610f9e601f891682610eab565b8355505b6001600288020188555050505b505050505050565b60006040820190508181036000830152610fd1818561086e565b9050610fe060208301846108a7565b9392505050565b600081905092915050565b6000610ffd82610817565b6110078185610fe7565b9350611017818560208601610833565b80840191505092915050565b6000819050919050565b61103e611039826107a1565b611023565b82525050565b60006110508286610ff2565b915061105c8285610ff2565b9150611068828461102d565b602082019150819050949350505050565b7f426174636820616c7265616479206578697374732e0000000000000000000000600082015250565b60006110af601583610822565b91506110ba82611079565b602082019050919050565b600060208201905081810360008301526110de816110a2565b9050919050565b600060408201905081810360008301526110ff818561086e565b90508181036020830152611113818461086e565b9050939250505056fea2646970667358221220e11026aa50765c4b6f11450bb79d086e941a0bb6da39da5e10f4ec76e7daefc864736f6c63430008180033",
  "linkReferences": {},
  "deployedLinkReferences": {}
}